{
  "_format": "hh-sol-artifact-1",
  "contractName": "EscbaseToken",
  "sourceName": "contracts/EscbaseToken.sol",
  "abi": [
    {
      "inputs": [],
      "stateMutability": "nonpayable",
      "type": "constructor"
    },
    {
      "inputs": [
        {
          "internalType": "address",
          "name": "spender",
          "type": "address"
        },
        {
          "internalType": "uint256",
          "name": "allowance",
          "type": "uint256"
        },
        {
          "internalType": "uint256",
          "name": "needed",
          "type": "uint256"
        }
      ],
      "name": "ERC20InsufficientAllowance",
      "type": "error"
    },
    {
      "inputs": [
        {
          "internalType": "address",
          "name": "sender",
          "type": "address"
        },
        {
          "internalType": "uint256",
          "name": "balance",
          "type": "uint256"
        },
        {
          "internalType": "uint256",
          "name": "needed",
          "type": "uint256"
        }
      ],
      "name": "ERC20InsufficientBalance",
      "type": "error"
    },
    {
      "inputs": [
        {
          "internalType": "address",
          "name": "approver",
          "type": "address"
        }
      ],
      "name": "ERC20InvalidApprover",
      "type": "error"
    },
    {
      "inputs": [
        {
          "internalType": "address",
          "name": "receiver",
          "type": "address"
        }
      ],
      "name": "ERC20InvalidReceiver",
      "type": "error"
    },
    {
      "inputs": [
        {
          "internalType": "address",
          "name": "sender",
          "type": "address"
        }
      ],
      "name": "ERC20InvalidSender",
      "type": "error"
    },
    {
      "inputs": [
        {
          "internalType": "address",
          "name": "spender",
          "type": "address"
        }
      ],
      "name": "ERC20InvalidSpender",
      "type": "error"
    },
    {
      "inputs": [
        {
          "internalType": "address",
          "name": "owner",
          "type": "address"
        }
      ],
      "name": "OwnableInvalidOwner",
      "type": "error"
    },
    {
      "inputs": [
        {
          "internalType": "address",
          "name": "account",
          "type": "address"
        }
      ],
      "name": "OwnableUnauthorizedAccount",
      "type": "error"
    },
    {
      "anonymous": false,
      "inputs": [
        {
          "indexed": true,
          "internalType": "address",
          "name": "owner",
          "type": "address"
        },
        {
          "indexed": true,
          "internalType": "address",
          "name": "spender",
          "type": "address"
        },
        {
          "indexed": false,
          "internalType": "uint256",
          "name": "value",
          "type": "uint256"
        }
      ],
      "name": "Approval",
      "type": "event"
    },
    {
      "anonymous": false,
      "inputs": [
        {
          "indexed": true,
          "internalType": "address",
          "name": "previousOwner",
          "type": "address"
        },
        {
          "indexed": true,
          "internalType": "address",
          "name": "newOwner",
          "type": "address"
        }
      ],
      "name": "OwnershipTransferred",
      "type": "event"
    },
    {
      "anonymous": false,
      "inputs": [
        {
          "indexed": true,
          "internalType": "address",
          "name": "from",
          "type": "address"
        },
        {
          "indexed": true,
          "internalType": "address",
          "name": "to",
          "type": "address"
        },
        {
          "indexed": false,
          "internalType": "uint256",
          "name": "value",
          "type": "uint256"
        }
      ],
      "name": "Transfer",
      "type": "event"
    },
    {
      "inputs": [
        {
          "internalType": "address",
          "name": "owner",
          "type": "address"
        },
        {
          "internalType": "address",
          "name": "spender",
          "type": "address"
        }
      ],
      "name": "allowance",
      "outputs": [
        {
          "internalType": "uint256",
          "name": "",
          "type": "uint256"
        }
      ],
      "stateMutability": "view",
      "type": "function"
    },
    {
      "inputs": [
        {
          "internalType": "address",
          "name": "spender",
          "type": "address"
        },
        {
          "internalType": "uint256",
          "name": "value",
          "type": "uint256"
        }
      ],
      "name": "approve",
      "outputs": [
        {
          "internalType": "bool",
          "name": "",
          "type": "bool"
        }
      ],
      "stateMutability": "nonpayable",
      "type": "function"
    },
    {
      "inputs": [
        {
          "internalType": "address",
          "name": "account",
          "type": "address"
        }
      ],
      "name": "balanceOf",
      "outputs": [
        {
          "internalType": "uint256",
          "name": "",
          "type": "uint256"
        }
      ],
      "stateMutability": "view",
      "type": "function"
    },
    {
      "inputs": [],
      "name": "decimals",
      "outputs": [
        {
          "internalType": "uint8",
          "name": "",
          "type": "uint8"
        }
      ],
      "stateMutability": "view",
      "type": "function"
    },
    {
      "inputs": [
        {
          "internalType": "address",
          "name": "to",
          "type": "address"
        },
        {
          "internalType": "uint256",
          "name": "amount",
          "type": "uint256"
        }
      ],
      "name": "mint",
      "outputs": [],
      "stateMutability": "nonpayable",
      "type": "function"
    },
    {
      "inputs": [],
      "name": "name",
      "outputs": [
        {
          "internalType": "string",
          "name": "",
          "type": "string"
        }
      ],
      "stateMutability": "view",
      "type": "function"
    },
    {
      "inputs": [],
      "name": "owner",
      "outputs": [
        {
          "internalType": "address",
          "name": "",
          "type": "address"
        }
      ],
      "stateMutability": "view",
      "type": "function"
    },
    {
      "inputs": [],
      "name": "renounceOwnership",
      "outputs": [],
      "stateMutability": "nonpayable",
      "type": "function"
    },
    {
      "inputs": [],
      "name": "swap",
      "outputs": [],
      "stateMutability": "payable",
      "type": "function"
    },
    {
      "inputs": [],
      "name": "symbol",
      "outputs": [
        {
          "internalType": "string",
          "name": "",
          "type": "string"
        }
      ],
      "stateMutability": "view",
      "type": "function"
    },
    {
      "inputs": [],
      "name": "totalSupply",
      "outputs": [
        {
          "internalType": "uint256",
          "name": "",
          "type": "uint256"
        }
      ],
      "stateMutability": "view",
      "type": "function"
    },
    {
      "inputs": [
        {
          "internalType": "address",
          "name": "to",
          "type": "address"
        },
        {
          "internalType": "uint256",
          "name": "value",
          "type": "uint256"
        }
      ],
      "name": "transfer",
      "outputs": [
        {
          "internalType": "bool",
          "name": "",
          "type": "bool"
        }
      ],
      "stateMutability": "nonpayable",
      "type": "function"
    },
    {
      "inputs": [
        {
          "internalType": "address",
          "name": "from",
          "type": "address"
        },
        {
          "internalType": "address",
          "name": "to",
          "type": "address"
        },
        {
          "internalType": "uint256",
          "name": "value",
          "type": "uint256"
        }
      ],
      "name": "transferFrom",
      "outputs": [
        {
          "internalType": "bool",
          "name": "",
          "type": "bool"
        }
      ],
      "stateMutability": "nonpayable",
      "type": "function"
    },
    {
      "inputs": [
        {
          "internalType": "address",
          "name": "newOwner",
          "type": "address"
        }
      ],
      "name": "transferOwnership",
      "outputs": [],
      "stateMutability": "nonpayable",
      "type": "function"
    }
  ],
  "bytecode": "0x60806040523480156200001157600080fd5b5033604051806040016040528060078152602001664573636261736560c81b8152506040518060400160405280600381526020016245534360e81b8152508160039081620000609190620001aa565b5060046200006f8282620001aa565b5050506001600160a01b038116620000a157604051631e4fbdf760e01b81526000600482015260240160405180910390fd5b620000ac81620000b3565b5062000276565b600580546001600160a01b038381166001600160a01b0319831681179093556040519116919082907f8be0079c531659141344cd1fd0a4f28419497f9722a3daafe3b4186f6b6457e090600090a35050565b634e487b7160e01b600052604160045260246000fd5b600181811c908216806200013057607f821691505b6020821081036200015157634e487b7160e01b600052602260045260246000fd5b50919050565b601f821115620001a557600081815260208120601f850160051c81016020861015620001805750805b601f850160051c820191505b81811015620001a1578281556001016200018c565b5050505b505050565b81516001600160401b03811115620001c657620001c662000105565b620001de81620001d784546200011b565b8462000157565b602080601f831160018114620002165760008415620001fd5750858301515b600019600386901b1c1916600185901b178555620001a1565b600085815260208120601f198616915b82811015620002475788860151825594840194600190910190840162000226565b5085821015620002665787850151600019600388901b60f8161c191681555b5050505050600190811b01905550565b610a0080620002866000396000f3fe6080604052600436106100dd5760003560e01c8063715018a61161007f57806395d89b411161005957806395d89b4114610235578063a9059cbb1461024a578063dd62ed3e1461026a578063f2fde38b146102b057600080fd5b8063715018a6146101f05780638119c065146102055780638da5cb5b1461020d57600080fd5b806323b872dd116100bb57806323b872dd1461015c578063313ce5671461017c57806340c10f191461019857806370a08231146101ba57600080fd5b806306fdde03146100e2578063095ea7b31461010d57806318160ddd1461013d575b600080fd5b3480156100ee57600080fd5b506100f76102d0565b604051610104919061082b565b60405180910390f35b34801561011957600080fd5b5061012d610128366004610895565b610362565b6040519015158152602001610104565b34801561014957600080fd5b506002545b604051908152602001610104565b34801561016857600080fd5b5061012d6101773660046108bf565b61037c565b34801561018857600080fd5b5060405160128152602001610104565b3480156101a457600080fd5b506101b86101b3366004610895565b6103a0565b005b3480156101c657600080fd5b5061014e6101d53660046108fb565b6001600160a01b031660009081526020819052604090205490565b3480156101fc57600080fd5b506101b86103b6565b6101b86103ca565b34801561021957600080fd5b506005546040516001600160a01b039091168152602001610104565b34801561024157600080fd5b506100f761042f565b34801561025657600080fd5b5061012d610265366004610895565b61043e565b34801561027657600080fd5b5061014e61028536600461091d565b6001600160a01b03918216600090815260016020908152604080832093909416825291909152205490565b3480156102bc57600080fd5b506101b86102cb3660046108fb565b61044c565b6060600380546102df90610950565b80601f016020809104026020016040519081016040528092919081815260200182805461030b90610950565b80156103585780601f1061032d57610100808354040283529160200191610358565b820191906000526020600020905b81548152906001019060200180831161033b57829003601f168201915b5050505050905090565b600033610370818585610487565b60019150505b92915050565b60003361038a858285610499565b610395858585610518565b506001949350505050565b6103a8610577565b6103b282826105a4565b5050565b6103be610577565b6103c860006105da565b565b600034116104115760405162461bcd60e51b815260206004820152600f60248201526e135d5cdd081cd95b990819d554d115608a1b60448201526064015b60405180910390fd5b600061042034620186a06109a0565b905061042c33826105a4565b50565b6060600480546102df90610950565b600033610370818585610518565b610454610577565b6001600160a01b03811661047e57604051631e4fbdf760e01b815260006004820152602401610408565b61042c816105da565b610494838383600161062c565b505050565b6001600160a01b03838116600090815260016020908152604080832093861683529290522054600019811015610512578181101561050357604051637dc7a0d960e11b81526001600160a01b03841660048201526024810182905260448101839052606401610408565b6105128484848403600061062c565b50505050565b6001600160a01b03831661054257604051634b637e8f60e11b815260006004820152602401610408565b6001600160a01b03821661056c5760405163ec442f0560e01b815260006004820152602401610408565b610494838383610701565b6005546001600160a01b031633146103c85760405163118cdaa760e01b8152336004820152602401610408565b6001600160a01b0382166105ce5760405163ec442f0560e01b815260006004820152602401610408565b6103b260008383610701565b600580546001600160a01b038381166001600160a01b0319831681179093556040519116919082907f8be0079c531659141344cd1fd0a4f28419497f9722a3daafe3b4186f6b6457e090600090a35050565b6001600160a01b0384166106565760405163e602df0560e01b815260006004820152602401610408565b6001600160a01b03831661068057604051634a1406b160e11b815260006004820152602401610408565b6001600160a01b038085166000908152600160209081526040808320938716835292905220829055801561051257826001600160a01b0316846001600160a01b03167f8c5be1e5ebec7d5bd14f71427d1e84f3dd0314c0f7b2291e5b200ac8c7c3b925846040516106f391815260200190565b60405180910390a350505050565b6001600160a01b03831661072c57806002600082825461072191906109b7565b9091555061079e9050565b6001600160a01b0383166000908152602081905260409020548181101561077f5760405163391434e360e21b81526001600160a01b03851660048201526024810182905260448101839052606401610408565b6001600160a01b03841660009081526020819052604090209082900390555b6001600160a01b0382166107ba576002805482900390556107d9565b6001600160a01b03821660009081526020819052604090208054820190555b816001600160a01b0316836001600160a01b03167fddf252ad1be2c89b69c2b068fc378daa952ba7f163c4a11628f55a4df523b3ef8360405161081e91815260200190565b60405180910390a3505050565b600060208083528351808285015260005b818110156108585785810183015185820160400152820161083c565b506000604082860101526040601f19601f8301168501019250505092915050565b80356001600160a01b038116811461089057600080fd5b919050565b600080604083850312156108a857600080fd5b6108b183610879565b946020939093013593505050565b6000806000606084860312156108d457600080fd5b6108dd84610879565b92506108eb60208501610879565b9150604084013590509250925092565b60006020828403121561090d57600080fd5b61091682610879565b9392505050565b6000806040838503121561093057600080fd5b61093983610879565b915061094760208401610879565b90509250929050565b600181811c9082168061096457607f821691505b60208210810361098457634e487b7160e01b600052602260045260246000fd5b50919050565b634e487b7160e01b600052601160045260246000fd5b80820281158282048414176103765761037661098a565b808201808211156103765761037661098a56fea2646970667358221220c964e96c3f7c52e02ef592896d5cf5033353ce0e430b7c7484b6932fbc3bf4a064736f6c63430008140033",
  "linkReferences": {},
  "deployedLinkReferences": {}
}